S00F000062696E2F6D61696E2E733139D8
S3150800000000400020291F0008F51E0008011F0008EF
S31508000010F51E0008F51E0008F51E00080000000081
S31508000020000000000000000000000000F51E0008A7
S31508000030F51E000800000000F51E0008150200085D
S31508000040F51E0008F51E0008F51E0008F51E000836
S31508000050F51E0008F51E0008F51E0008F51E000826
S31508000060F51E0008F51E0008F51E0008F51E000816
S31508000070F51E0008F51E0008F51E0008F51E000806
S31508000080F51E0008F51E0008F51E0008F51E0008F6
S31508000090F51E0008F51E0008F51E0008F51E0008E6
S315080000A0F51E0008F51E0008F51E0008F51E0008D6
S315080000B0F51E000841190008F51E0008F51E00087F
S315080000C0F51E0008F51E0008F51E0008F51E0008B6
S315080000D0F51E0008F51E0008F51E0008F51E0008A6
S315080000E0F51E0008F51E0008F51E0008F51E000896
S315080000F0F51E0008F51E0008F51E0008F51E000886
S31508000100000000000000000000000000F51E0008C6
S31508000110F51E0008F51E0008F51E0008F51E000865
S31508000120F51E0008F51E0008F51E0008F51E000855
S31508000130F51E0008F51E000800000000000000007B
S31508000140F51E0008F51E0008F51E00080000000050
S315080001500000000000000000000000000000000091
S315080001600000000000000000F51E0008F51E00084B
S31508000170F51E000800000000000000000000000056
S30D0800018000000000F51E00084E
S3150800018872B6054B054A1B680C2101FB032300229E
S315080001985A6062B600BFFDE7F4020020AC020020F0
S315080001A808B501F01DFEFCE770B500221146154B8F
S315080001B80C2000FB01F55E19746814F0020F1C4642
S315080001C80AD17668F60707D550435D5B185AADB26B
S315080001D880B2854238BF0A460C2048431D5AADB23C
S315080001E825B11D5AADB2013DADB21D5201310629E0
S315080001F8DDD10C235343E118498889B2E152024BF1
S315080002081A6070BDAC020020F40200202DE9F00F38
S31508000218EFF308820D4C0E4D2368013305D0236889
S315080002280C2101FB03539A6001E000232360FFF7C2
S31508000238BBFF23680C2202FB03556FF00603AA6866
S315080002489E4682F30888BDE8F00F7047F40200203E
S31508000258AC02002072B6704762B6704700BF704796
S3150800026882B072B6034B1B68019362B6019802B056
S31508000278704700BFF402002008B501F09FFD00BFD3
S31508000288FDE7000022F00302403A2DE9F04301EBAE
S31508000298020C02F1340802F138093C3288448944D0
S315080002A807461144002272B6114E0C255543741997
S315080002B86068C00712D40F48C4F808C0C8F8000018
S315080002C84FF00450C9F80070052B98BF062308603C
S315080002D80120638073536060104600E0062062B60A
S315080002E80132062A01D00628DDD0BDE8F08300BF12
S315080002F8AC0200208901000810B500230B490C221E
S315080003085A438C18002060600133062083426080B7
S315080003188852F3D1064B074807494FF0FF321A604F
S31508000328BDE810408022FF23FFF7ACBFAC020020CF
S31508000338F4020020A9010008F802002007B5FFF713
S315080003488FFF009072B60D4B009A0C2101FB023202
S31508000358516841F00201516072B6009A0C2101FBFE
S3150800036802325268019262B6019A910700D500BF17
S31508000378019A9207F0D403B05DF804FBAC0200209A
S31508000388002372B6064A0C2101FB0322516821F0A4
S315080003980201516062B60133062BF2D1704700BFDD
S315080003A8AC02002008B5FFF7A7FF00F005F8BDE87E
S315080003B8084000F0E7B800000A4A002310B51360A1
S315080003C853609360D36013615361074C1801211871
S315080003D801330022042B4A602250CA608A60F4D18D
S315080003E810BD00BF780300209003002038B5064CDE
S315080003F80546204600F0F8F8284601F025FC204670
S31508000408BDE8384000F00CB9D003002010B5044602
S31508000418074800F0E9F8013C14F8010F10B1FFF796
S31508000428E5FFF9E70248BDE8104000F0F9B800BF53
S31508000438DC03002030B585B0031E4FF00002A8BFC4
S3150800044814468DF80F20BCBF5B4201240A220A21F4
S3150800045893FBF1F501FB153301A830331354511EEC
S315080004682B460DB10A46F2E72CB104AB0B442D22F4
S3150800047803F80C2C0A461044FFF7C8FF05B030BD30
S315080004881FB500238DF80F300A230A24B0FBF4F1B0
S3150800049804FB110001AA303098545C1E084609B1BD
S315080004A82346F2E7D018FFF7B1FF04B010BD1FB511
S315080004B800238DF80F300A2300F00F01092901AA35
S315080004C894BF303157310009D15403F1FF3101D0B7
S315080004D80B46F1E7D018FFF799FF05B05DF804FB5E
S315080004E80FB437B506AC264854F8045B00F07CF818
S315080004F801940024285D002839D0252803D0FFF761
S3150800050875FF0134F6E72B195878692816D008D8E4
S31508000518252828D0632828D1019B1A1D0192187806
S3150800052821E0752811D0782816D073281DD1019B8B
S315080005381A1D18680192FFF769FF16E0019B1A1D34
S3150800054818680192FFF776FF0FE0019B1A1D1868D5
S315080005580192FFF795FF08E0019B1A1D186801929A
S31508000568FFF7A5FF01E0FFF741FF0234C2E7044899
S3150800057800F056F803B0BDE8304004B0704700BF35
S31508000588D803002010B50E4800F024F80D4800F0EE
S3150800059821F80D4800F01EF80C4800F01BF808244E
S315080005A82020FFF723FF013CFAD120240A20FFF771
S315080005B81DFF013CFAD10648BDE81040FFF790BF79
S315080005C8D0030020D4030020DC030020D803002031
S315080005D86025000810B50446FFF73CFE0023236093
S315080005E8BDE81040FFF738BE13B50446FFF732FEDC
S315080005F823680193FFF730FE019B0BB1FFF79EFEB8
S31508000608019B002BF2D1FFF725FE23680193019B76
S31508000618002BEBD101232360FFF71EFE02B010BDA5
S3150800062808B5FFF7D7FFFFF7ABFEBDE80840FFF7A9
S3150800063815BE000008B501F04FFEFFF7B3FE0549E1
S3150800064805484FF400720623FFF71CFEFFF714FE51
S31508000658002008BDE00700204914000800BF7047BD
S31508000668F7B5154F3B7801240326002569464FF050
S31508000678904000938DF807508DF804408DF8056072
S315080006888DF8064001F039FE3A784FF090436946EE
S315080006981A858DF80750094D009428468DF80440A8
S315080006A88DF805608DF8064001F027FE2C85FFF7C2
S315080006B8D5FF03B0F0BD00BF3A0A00200004004881
S315080006C873B5134D2B780024032669464FF09040DE
S315080006D800938DF804408DF807408DF8056001F001
S315080006E80CFE2A784FF0904301259A618DF804404C
S315080006F88DF80740074C0095204669468DF8056031
S3150800070801F0FBFDA561FFF7A9FF02B070BD00BFA8
S315080007183A0A0020000400484FF090434FF48072CC
S315080007281A85FFF79BBF4FF090434FF480729A6182
S31508000738FFF794BFF7B51F4F0024012503264FF48A
S31508000748807369464FF0904000938DF806408DF8FF
S3150800075807408DF804508DF8056001F0CEFD3B780A
S315080007688DF8044069464FF0904000938DF807408D
S315080007788DF8056001F0C1FD39784FF0904001F019
S3150800078802FE8DF804408DF807400B4C009520466C
S3150800079869468DF8056001F0B0FD2046294601F046
S315080007A8F2FDFFF7C0FFFFF75BFFFFF789FF03B00E
S315080007B8F0BD00BF3A0A00200004004808B5FFF754
S315080007C8B2FFFFF77DFFFFF7AEFFFFF749FFFFF719
S315080007D8A3FFBDE80840FFF773BF08B5FFF79CFFFE
S315080007E8FFF73EFFFFF79FFFFFF73AFFFFF79BFF6D
S315080007F8BDE80840FFF764BF38B504460825FFF783
S315080008088BFF230602D5FFF75BFF01E0FFF728FFFA
S31508000818013DFFF788FF640015F0FF05E4B2EED145
S31508000828FFF77AFFFFF74CFFFFF77DFFFFF774FF27
S31508000838BDE83840FFF712BF70B5002306460C46D8
S315080008480022E2540133092BFAD1FFF765FFFFF7B7
S3150800085837FF08250023E25C5200E2540133092BCE
S31508000868F9D1FFF760FF4FF090431B8A9BB2D80770
S3150800087803D5227842F001022270990703D56278D7
S3150800088842F0010262705A0703D5A27842F00102C3
S31508000898A270180703D5E27842F00102E270D90679
S315080008A803D5227942F0010222719A0603D56279A4
S315080008B842F001026271580603D5A27942F0010294
S315080008C8A271190603D5E37943F00103E3710B4BCB
S315080008D81B8ADA0703D5237A43F001032372FFF745
S315080008E81BFF013DB6D10EB1FFF7BAFEFFF71BFF96
S315080008F8FFF712FFBDE87040FFF7B0BE00040048D6
S3150800090870B505460C461646FFF758FF2846FFF702
S3150800091873FF2046FFF770FF3046FFF76DFFBDE807
S315080009287040FFF75ABF00001D4B70B50924002216
S31508000938013C1A805A829A84A3F84820DA8603F179
S315080009480203F4D1174D4FF6FF762E80FFF7F2FE15
S3150800095872208121FF22FFF7D3FF72208321FF220D
S31508000968FFF7CEFF72208D212246FFF7C9FF7220B6
S3150800097880210322FFF7C4FF72208F212322FFF765
S31508000988BFFFFFF79DFE7220802107222C80FFF704
S31508000998B7FF72208E210822FFF7B2FF2E8070BD9E
S315080009A8E00900203A0A002038B5FFF707FF722049
S315080009B8FFF722FFB420FFF71FFFFFF7FFFE73209C
S315080009C8FFF71AFF01204649FFF736FF0023454D72
S315080009D8434C05EB4302195D0133092BD186F6D141
S315080009E801202146FFF728FF05F136020023118862
S315080009F8E05C013341EA0021092B22F8021BF6D1F3
S31508000A0801203749FFF718FF0023E25C25F8132071
S31508000A180133092BF9D101203149FFF70DFF324A75
S31508000A280023E05C5188013341EA0021092B22F8AA
S31508000A38021FF6D101202A49FFF7FEFE002305EB1F
S31508000A484302E15C0133092B5182F8D1012024497C
S31508000A58FFF7F2FE254A00231188E05C013341EAD4
S31508000A680021092B22F8021BF6D101201C49FFF7A1
S31508000A78E3FE002305EB4302E15C0133092B91846D
S31508000A88F8D101201649FFF7D7FE194A002311881D
S31508000A98E05C013341EA0021092B22F8021BF6D152
S31508000AA801200F49FFF7C8FE002305EB4302E15C66
S31508000AB80133092BA2F84810F7D100200849FFF797
S31508000AC8BBFE0C4A00231188E05C013341EA002189
S31508000AD8092B22F8021BF6D1BDE83840FFF77DBE80
S31508000AE83C0A0020E0090020DE090020F20900205F
S31508000AF8040A0020280A0020024B00221A705A60AD
S31508000B08704700BF480A002010B50121F02001F0FF
S31508000B1882F8044C02212070F02001F07CF860600D
S31508000B2810BD00BF480A002010B52C21D02001F0BE
S31508000B3872F82D210446D02001F06DF8024B44EADC
S31508000B480020988010BD00BF500A002010B5D0209C
S31508000B5820217F2201F04CF8D0202121002201F023
S31508000B6847F8D0202221002201F042F8D02023217C
S31508000B78102201F03DF8D0202421002201F038F88F
S31508000B88074B00241C805C809C80DC801C815C816F
S31508000B989C81DC811C82FFF7C7FF204610BD00BF79
S31508000BA8500A00200C490846002310B500F8103BE7
S31508000BB88A1E02320023824253809382D384F8D154
S31508000BC881F8383081F84430CB630B64FFF7ACFE04
S31508000BD8BDE81040FFF7E8BE640A002070B55E4B12
S31508000BE803F11202B3F916000233B3F9021093425D
S31508000BF8C1EB0001D984F5D15849594A0B6CB2F9A9
S31508000C085820B1F92E40072000FB0323082293FB3E
S31508000C18F2F3B1F92C20B1F926000B6412F5AF7F6F
S31508000C28AABF02460323002314F5AF7FB8BF22469E
S31508000C38B1F92A40B8BF042314F5AF7FB8BF2246D6
S31508000C48B1F93040B8BF022314F5AF7FB8BF2246C2
S31508000C58B1F92840B8BF052314F5AF7FB8BF2246B7
S31508000C68B1F93240B8BF012314F5AF7FB8BF2246A1
S31508000C78B1F93440B8BF0623054615F5AF7FB8BFA6
S31508000C88002310F5AF7FA8BF104614F5AF7F334A87
S31508000C9832DB10F5AF7F5ADC002B55D002EB430642
S31508000CA83246B6F92860B2F924205D1E964203F149
S31508000CB80104A8BF2C464FEA831001EB440401EB54
S31508000CC84303B4F92650B3F926304FEA45141D44B0
S31508000CD894FBF5F3C3F12004ACBFA0F1400200F180
S31508000CE84002444303FB0244202594FBF5F4E03C08
S31508000CF8B4F5807FCC6324DD4FF4807491F83830DE
S31508000D08012B03D8154A013382F8383091F8383060
S31508000D18124D022B09D1FFF79DFA95F84430EC637A
S31508000D2843F0030385F8443007E0FFF793FA95F88C
S31508000D38443023F0010385F84430BDE87040FFF7D6
S31508000D488BBA14F5807FD9DA6FF0FF04D6E700234B
S31508000D5882F8383070BD00BF620A0020640A002095
S31508000D68E009002038B5FFF71FFE164B0022184683
S31508000D78845E40F2FF318C42DCBF4FF480648452B3
S31508000D88B3F91240DD8E8C42DCBF4FF480645C8276
S31508000D98B3F924408C42D8BF4FF480610A4CD8BFB7
S31508000DA899840A49145B11442C1B02328C82102A36
S31508000DB84FF480644C8003F10203D9D1BDE838406A
S31508000DC8FFF70CBFE009002000000020640A002095
S31508000DD807EE900AF5EEC07AF1EE10FA48BFF1EE82
S31508000DE8677A17EE900A704707EE900A06EE901A89
S31508000DF8F4EE667A07EE102AF1EE10FA48BFF0EE1E
S31508000E08667AF4EE477AF1EE10FACCBF17EE100AB6
S31508000E1817EE900A704707EE100A07EE901AB4EE16
S31508000E28E77AF1EE10FA54BF17EE900A17EE100A91
S31508000E3870470000094B0A491A684A43094902F5E6
S31508000E48405210B5086839321A60074B40F3000457
S31508000E58234083EA50000860504010BD1400002063
S31508000E686D4EC64110000020010000D0F7B5174B9B
S31508000E78174E184F184D00244FF07E521A605C60C2
S31508000E889C6030463946224623460094019400F071
S31508000E9835F93046114E00942946114A114B00F08F
S31508000EA85DF930463946224623460094019400F0F7
S31508000EB825F90094304629460B4A0C4B00F04EF9A2
S31508000EC803B0BDE8F04000F0B5B900BF340D002006
S31508000ED8400D00200000C84292B42D410C0D002098
S31508000EE8E2F7ABC1333B2A418B19ABC1847E284153
S31508000EF870B53D4D3D4895ED0F7A2DED028BF8EE10
S31508000F08C77A9FED3B8A67EE887ADFED3A8A17EE4D
S31508000F18901A00F029F995ED0F7AF8EEC77A064681
S31508000F2867EE887A344817EE901A00F01DF995EDA1
S31508000F380F7AF8EEC77A044667EE887A9FED2F8A05
S31508000F4817EE900AFFF744FF07EE900A78EEE78A4D
S31508000F582246314618EE900A00F058F9284C294BD3
S31508000F68A060B5F93C00236000F0A8F907EE100A5E
S31508000F78F8EEC77A9FED247AC7EE887A18EE901AA3
S31508000F88C4ED007AD4ED017A48EE877A17EE900A0E
S31508000F98FFF741FF94ED007ADFED1C7A67EE277AB2
S31508000FA81B49606017EE902AFFF71EFF94ED027A38
S31508000FB807EE900A77EEC76A77EE877A66EE886A4A
S31508000FC827EE888AFDEEE66ABDEEC88A606018EEE6
S31508000FD8101ABDEC028B16EE900A09B200B2BDE8EB
S31508000FE8704000F069BA00BF640A0020400D00206E
S31508000FF80000803B0000803F0C0D00200000C8421E
S31508001008340D00203333333F0AD7233C6666663FE0
S31508001018CDCCCC3E704700002DE9F0410024274688
S3150800102825462646DFF8D08098F83830022B5DD05A
S31508001038052000F0BBFC052F53D8DFE807F003139B
S3150800104823324143002C44D1D8F83C30002B4FF0CA
S3150800105882044FF00107D4BF32250025D4BF0026E5
S3150800106832263EE06CB9D8F83C30002BCCBF0025B8
S315080010786FF03105CCBF6FF03106002682240227AF
S3150800108827E0013C2CBBD8F83C30002B4FF08204F3
S315080010984FF00307D4BF00253225D4BF32260026D1
S315080010A81FE064B9D8F83C30002BCCBF6FF0310587
S315080010B80025CCBF002632268224042709E0013CF5
S315080010C84CB106E064B1272DD8BF0135272ED8BF05
S315080010D80136013C05E00025412405272E4600E097
S315080010E8274628B231B200F0E7F99BE70020014607
S315080010F8BDE8F04100F0E0B9640A002006EE102ABF
S3150800110805EE903ADDED007A76EE256A9DED017AD0
S3150800111876EEA76A77EEA75A76EE876AB1EE466A3A
S31508001128C0ED046ADFED0C6A36EE656A67EE266A74
S31508001138002236EE666A77EEA67AB1EE477A02603C
S3150800114842608260C26080ED056AC0ED067A80ED6D
S31508001158077A026241627047000040408361009B3B
S3150800116801614261C3617047D0ED087A05EE901AAD
S3150800117890ED045A45EE857A90ED006AD0ED055A49
S3150800118846EE257AD0ED016A80ED016A90ED066A89
S3150800119846EE867A90ED027AC0ED026AD0ED076AC5
S315080011A847EE267A80ED037A90ED097AF4EEC77A47
S315080011B8F1EE10FAC0ED087AC8BF80ED087AD0EDCE
S315080011C8087AB1EE477AF4EEC77AF1EE10FA48BF14
S315080011D880ED087A0160006A704700000023044A17
S315080011E8995A044A99520233402BF8D1704700BFDE
S315080011F818000020680D002008B50020014600F0F8
S315080012085BF96420BDE8084000F0D0BB07EE900AF9
S315080012189FED077A06EE902A37EE677A27EE267A42
S3150800122806EE901A07EEA67A17EE100A704700BF60
S315080012380000803F70B500231C4E00259D530233DD
S31508001248202BF9D10024FFF7F5FD7319234402343E
S31508001258C0F3C400202C15491884F4D12035B5F5F7
S31508001268007FEFD1124B03F12000322223F8022F18
S31508001278002283421A84F8D10E48002300EB021094
S31508001288541804EB0314C55A0233202B2584F7D1C6
S315080012980232202AF0D100230749F218595A023394
S315080012A8202BA2F82012F7D170BD00BFAC0A002087
S315080012B8CA0C002078000020580000202DE9F043C9
S315080012C8364BA3F11E018A1C33F802498B429C80CF
S315080012D8FAD10028BCBF404200B2002310804FF460
S315080012E8805619462E4C4F0104F1200C002534F877
S315080012F8029F04EB0708B8F82080C8EB0908B8F17C
S31508001308000FB8BFC8F1000864454544EFD1B54297
S31508001318B8BF0B4601F10101B8BF2E461029E1D125
S3150800132802EB4318002408EB0406175BB6F820C03E
S315080013381C491F2505FB0C777F090234B7F5807F02
S3150800134828BF4FF48077202C3784ECD103F59074A6
S3150800135803F5887331F8146005FB0600400921F87F
S315080013681400282480B260436424B0FBF4F031F8F2
S315080013781340C0F10100204480B2312898BF3220BA
S3150800138821F8130032F81310642903D90549642093
S3150800139821F8130032F81300BDE8F083C80A0020C4
S315080013A8AA0A0020AC0A002008B5FFF7FBFB0020B4
S315080013B8042100F00BFB002000F01EFBFFF7D2FC0F
S315080013C8F9E708B5FFF7C2FBFFF796FB01201421DA
S315080013D800F0FCFA012000F00FFBFFF7A5FBFFF76A
S315080013E893FBF7E710B5FFF741FD0220042100F04B
S315080013F8EDFA0024022000F0FFFA104B1A6CB2F539
S31508001408027F02DDFFF7F8FE08E093F83830022B72
S3150800141802D1FFF76DFD01E0FFF7FEFD0134142345
S31508001428B4FBF3F203FB12434FF4004013B901F07F
S3150800143817F8DFE701F026F8DCE700BF640A0020A2
S3150800144808B51848FFF74CF8174918484FF40072BA
S315080014580623FEF717FF4FF40072062314491548AA
S31508001468FEF710FF0020014600F026F8FFF7D2FD28
S31508001478FFF7B4FE01F018F828B14FF47A7000F0B7
S3150800148895FAFFF7AFFF4FF4004000F0E9FF642034
S3150800149800F08CFA4FF4004000F0F4FFC82000F082
S315080014A885FAE7E771250008E0030020B11300086C
S315080014B8E0050020CB130008021E184B09DD9869C1
S315080014C840F0080098614FF090434FF40040986147
S315080014D80BE0188D80B240F0080018854FF090434D
S315080014E84FF400405242188512B200290B4B05DD0D
S315080014F8188D80B240F02000188505E098694942A1
S3150800150840F02000986109B26429B4BF08466420EF
S31508001518642AB4BF1146642100F044B800040048A0
S31508001528F7B51F4D002403263823012728466946A0
S3150800153800938DF804708DF806408DF805608DF8CF
S31508001548074000F0DAFE0823009328460223694676
S315080015588DF804308DF806408DF805608DF807403B
S3150800156800F0CBFE0F222846314600F014FF4FF450
S31508001578004369464FF0904000938DF804708DF843
S3150800158806408DF805608DF8074000F0B6FE102372
S315080015982B8520462146FFF78FFF03B0F0BD00BF15
S315080015A8000400482DE9F04186B070230193012311
S315080015B8ADF808300423ADF80A30174F174C022344
S315080015C8ADF810300023ADF81230ADF816303B6888
S315080015D842F21076B3FBF6F3023B58436425B0FB98
S315080015E8F5F34FF480722046884601A9ADF8142011
S315080015F8039300F0C1F83B68B3FBF6F6023E06FB18
S3150800160808F8B8FBF5F5204601A9039500F0FAF89D
S3150800161806B0BDE8F08100BF78020020002C014022
S3150800162830B54FF4006087B0012100F039FE4FF459
S315080016388020012100F026FE1D4C1E4D4FF4C043A4
S31508001648019302238DF808302046032301A98DF853
S31508001658093000F052FE20460D21062200F09BFEB6
S3150800166820460E21062200F096FE134B1A6842F20F
S315080016781073B2FBF3F30024013B284603A904932D
S31508001688ADF80C40ADF80E40ADF81440ADF816406C
S3150800169800F014F820462146FFF784FF2846012162
S315080016A800F05CF82846012100F0EAF807B030BDDA
S315080016B800040048002C01407802002000BF00BF43
S315080016C800BF244A038890429BB212D002F50062F2
S315080016D890420ED0B0F1804F0BD0A2F598329042C6
S315080016E807D002F58062904203D002F5A4329042F0
S315080016F803D14A8823F070031343174A904208D047
S3150800170802F58062904204D023F440730A899BB29A
S31508001718134303804B68C3620B8803850D4B9842B5
S3150800172813D003F5006398420FD003F54063984237
S315080017380BD003F58063984207D003F58063984277
S3150800174803D003F50063984201D14B890386012328
S3150800175843617047002C01400010004000BF00BFDD
S31508001768038819B19BB243F0010303E023F0010390
S315080017781B041B0C0380704730B500BF00BF00BFB1
S3150800178800BF036A0C6823F001030362036A426810
S31508001798856925F4803525F073052C438D8923F052
S315080017A802032B438D882B43154DA8420FD005F508
S315080017B80065A8420BD005F54065A84207D005F58F
S315080017C88065A84203D005F58065A84211D100BFF7
S315080017D800BF00BF00BFCD8923F008032B43CD887F
S315080017E823F004032B430D8A22F440722A434D8AB8
S315080017F82A4342608A6884614263036230BD00BF37
S31508001808002C014070B500BF00BF00BF00BF036AC7
S315080018180C688E8923F010030362056A4268836997
S3150800182823F0807323F4E64343EA04248B8825F0DF
S315080018382005334345EA0313104DA84203D005F59E
S315080018480065A84214D100BF00BF00BF00BFCD89FC
S315080018580E8A23F0800343EA0513CD8823F0400354
S3150800186843EA05134D8A22F44062354342EA850263
S3150800187842608A6884618263036270BD002C0140F5
S3150800188800BF00BF436C11B143F4004301E0C3F342
S315080018980E034364704700BFC94389B201617047A4
S315080018A830B5002385B01F494FF4806221F813200C
S315080018B81D4921F813201D4A002422F81340013334
S315080018C8042B2546EFD11A4B022001211C6000F093
S315080018D8F5FCADF80640ADF80C40ADF80E40154CD1
S315080018E84FF48C73ADF804302046312301A90293CE
S315080018F8FFF7E4FE20460121FFF730FFE36843F0CF
S315080019080103E3601D238DF80030684601238DF82E
S3150800191801508DF802308DF8033000F0CDFD05B082
S3150800192830BD00BFBC0D0020B00D0020A80D00205A
S31508001938B80D0020000400400023104A32F813109E
S3150800194889B229B132F8131089B2013989B207E088
S315080019580B4931F8131089B222F81310094A0121E4
S3150800196822F813100133042BE7D1074B07481A68E6
S31508001978012101321A60FFF78EBF00BFBC0D002097
S31508001988B00D0020A80D0020B80D00200004004066
S3150800199882B072B6044B1B68019362B601980A2393
S315080019A8B0FBF3F002B07047B80D002013B5044633
S315080019B8FFF7EEFF20440190019CFFF7E9FF8442F8
S315080019C802D900F00DFAF7E702B010BD72B60A237D
S315080019D85943064B89B223F81010054B23F8101003
S315080019E8044B002223F8102062B67047BC0D00206D
S315080019F8B00D0020A80D002010B50446064B33F894
S31508001A08142092B212B900F0EBF9F7E772B6002281
S31508001A1823F8142062B610BDA80D00200B23013B3D
S31508001A2801D000BFFBE7704737B50D4D01230322E8
S31508001A3880248DF804308DF8063028460023694638
S31508001A488DF805208DF80730009400F056FC2846D6
S31508001A58214600F09CFCFFF7E1FF03B030BD00BF4C
S31508001A680004004837B50D4D0322002380248DF85D
S31508001A7805202846012269468DF804308DF8062087
S31508001A888DF80730009400F038FC2846214600F007
S31508001A987AFCFFF7C3FF03B030BD00BF0004004857
S31508001AA808B50448402100F072FCBDE80840FFF775
S31508001AB8B5BF00BF0004004808B50448402100F037
S31508001AC862FCBDE80840FFF7A9BF00BF000400484C
S31508001AD807B54FF48020012100F0D4FBC0230093FA
S31508001AE8012303220A488DF8043069468DF8063022
S31508001AF800238DF805208DF8073000F0FEFBFFF768
S31508001B08DBFFFFF791FFFFF7ADFF03B05DF804FBB6
S31508001B180004004808B5FFF7CFFFFFF7A3FFFFF754
S31508001B28CBFFFFF781FFFFF7BBFFBDE80840FFF7CC
S31508001B3899BF08B5FFF7B4FFFFF776FFFFF7BCFFB5
S31508001B48FFF772FFFFF7B8FFBDE80840FFF78ABF3F
S31508001B5838B504460825FFF7A3FF230602D5FFF77D
S31508001B6881FF01E0FFF760FF013DFFF7A5FF64006D
S31508001B7815F0FF05E4B2EED1FFF792FFFFF772FF03
S31508001B88FFF79AFF054B1C8AA4B2FFF789FFFFF7F0
S31508001B9845FF84F08000C0F3C01038BD0004004833
S31508001BA870B50646FFF77CFFFFF75CFF082500249B
S31508001BB8FFF782FF0D4B1B8A64001A06E4B248BF7A
S31508001BC8013405F1FF3548BFE4B2FFF769FF15F0A0
S31508001BD8FF05EDD10EB1FFF727FFFFF76DFFFFF7FA
S31508001BE85FFFFFF71BFF204670BD00BF00040048D3
S31508001BF870B505460C461646FFF78CFF2846FFF7CC
S31508001C08A7FF2046FFF7A4FF3046FFF7A1FFBDE868
S31508001C187040FFF78EBF38B504460D46FFF77AFFC2
S31508001C282046FFF795FF2846FFF792FFFFF772FF52
S31508001C3844F00100FFF78CFF0020FFF7B1FF0446C8
S31508001C48FFF777FF204638BD034BDA69120601D439
S31508001C5800BFF9E7188570470038014010B54FF4FA
S31508001C68003088B0012100F00DFB4FF480400121B7
S31508001C7800F016FB4FF4C0630093022300248DF886
S31508001C880430694603234FF090408DF805308DF8E7
S31508001C9806408DF8074000F030FB4FF090400921C8
S31508001CA8072200F078FB07224FF090400A2100F03F
S31508001CB872FB0394049405940794084C4FF4E13393
S31508001CC8029320460C2302A9069300F009F8204639
S31508001CD8012100F067F808B010BD00BF00380140C0
S31508001CE830B5044699B00D4600BF00BF00BF00BF17
S31508001CF800BF00BF00BF036823F001030360426802
S31508001D088B6822F44052134343606A68EB6801689B
S31508001D181A432B6921F4B05121F00C0113430B43E4
S31508001D28036082686B6922F440721343836001A8D2
S31508001D3800F01CF9174B9C4201D10F9A0EE0164B7E
S31508001D489C4201D1109A09E0144B9C4201D1119A80
S31508001D5804E0134B9C420CBF129A139A236829680D
S31508001D6813F4004F18BF5200B2FBF1F301FB13221C
S31508001D78B2EB510F226828BF0133120406D54FF675
S31508001D88F072C3F342011A4041EA02039BB2A381E7
S31508001D9819B030BD003801400044004000480040F2
S31508001DA8004C004000BF00BF036811B143F00103AF
S31508001DB801E023F00103036070470000054B064A5B
S31508001DC85A60064AF02182F8231000229A600722F0
S31508001DD81A60704710E000E04090020000ED00E04D
S31508001DE830BF704700F000B83B4BD3F8882042F460
S31508001DF87002C3F88820394B1A6842F001021A6043
S31508001E085968374A0A405A601A6822F0847222F4D6
S31508001E1880321A601A6822F480221A605A6822F4F4
S31508001E28FE025A60DA6A22F00F02DA62196B2D4A44
S31508001E3882B00A401A6300229A60009201921A68D0
S31508001E4842F480321A60254B1A6802F4003201926D
S31508001E58009A01320092019A1AB9009AB2F5A04F6F
S31508001E68F1D11B6813F4003318BF01230193019BB2
S31508001E78012B05D0184B4FF000629A6002B07047E4
S31508001E88194B12221A60A3F580535A685A605A6881
S31508001E985A605A6842F480625A605A6822F47C1278
S31508001EA85A605A6842F4E8125A601A6842F0807210
S31508001EB81A601968094A8901FBD5536823F0030390
S31508001EC85360536843F002035360044B5B6803F09E
S31508001ED80C03082BF9D1CDE700ED00E0001002400D
S31508001EE80CC07FF8CCFC00FF00200240684620F0B2
S31508001EF807018D4600BFFDE74FF4004000F0B0FA31
S31508001F08064B013B01D000BFFBE74FF4004000F049
S31508001F18B9FA024B013BEFD000BFFBE78196980060
S31508001F280E4A0F48801A80100023834206D00D49AE
S31508001F3851F8231042F823100133F6E70A4BD3F871
S31508001F48882042F47002C3F8882003F50C735A688F
S31508001F5822F040425A60FEF76DBB00BF0000002021
S31508001F68AC020020B025000800ED00E0A54B5A6831
S31508001F7802F00C02042A2DE9F04305D0082A06D0F7
S31508001F88A14B0360BAB917E09F4B036013E0596881
S31508001F985C68C1F38341E20301F1020101D49B4A5B
S31508001FA806E0DA6A984B02F00F020132B3FBF2F246
S31508001FB84A43026000E00022924F954D7B68DFF89D
S31508001FC85482C3F30313EC5C0368E4B223FA04F1FE
S31508001FD841607E68C6F30226AE5D21FA06F686607B
S31508001FE8D7F804C0CCF3C22C15F80C50EDB2E9406A
S31508001FF8C160D7F82C90C9F3041909F00F0C19F029
S31508002008100F38F81CC01FFA8CFC07D0BCF1000F5B
S3150800201804D0B2FBFCFCC0F810C000E00361FF6AFC
S31508002028C7F3442C0CF00F071CF0100F38F817707C
S31508002038BFB204D01FB1B2FBF7F7476100E04361AE
S31508002048704FD7F830C01CF0100F0ABFDFF8B8C1B8
S315080020588361C0F818C03F6BBF0656BF6A4FC36195
S31508002068C761684FD7F830C01CF0400F0ABFDFF8C1
S3150800207898C10362C0F820C03F6BFF0506D5934296
S3150800208804D1A54202D15F00476200E041625D4F74
S31508002098D7F830C01CF4805F08D0934206D1A54211
S315080020A804D14FEA430CC0F828C000E081623F6BB0
S315080020B8BF0506D5934204D1A54202D15F00C7627F
S315080020C800E0C1624F4FD7F830C01CF4806F08D0C3
S315080020D8934206D1A54204D14FEA430CC0F84CC036
S315080020E800E0C1643F6B3F0506D5934204D1A5427B
S315080020F802D15F00076500E00165424FD7F830C096
S315080021081CF4005F08D0934206D1A54204D14FEAD1
S31508002118430CC0F854C000E001653F6B3F0406D580
S31508002128934204D1A54202D15A00826500E081652E
S31508002138344A146BA40714D0116B01F00301012962
S3150800214801D183630EE0116B01F00301022902D164
S315080021584FF4004105E0116B01F00301032901D191
S3150800216829498163126B274912F4403F01D1C66396
S3150800217818E00A6B02F44032B2F5803F01D1C36316
S3150800218810E00A6B02F44032B2F5003F02D14FF470
S31508002198004206E00A6B02F44032B2F5403F01D12C
S315080021A8194AC263174A116B11F4402F01D1066404
S315080021B818E0116B01F44021B1F5802F01D10364B1
S315080021C810E0116B01F44021B1F5002F02D14FF44C
S315080021D8004106E0116B01F44021B1F5402F01D109
S315080021E809490164126B074912F4401F01D1466474
S315080021F823E00A6B02F44012B2F5801F0CD143643F
S315080022081BE000BF0010024000127A0000093D00DA
S315080022189C0200207C0200200A6B02F44012B2F5E8
S31508002228001F02D14FF4004206E00A6B02F440127E
S31508002238B2F5401F01D1114A4264114A116B11F4D3
S31508002248400F02D18664BDE8F083116B01F44001A2
S31508002258B1F5800F0FD0136B03F44003B3F5000FE5
S3150800226802D14FF4004306E0136B03F44003B3F5B9
S31508002278400F01D1014B8364BDE8F08300127A0050
S315080022880010024000BF00BF044B5A6909B1104349
S3150800229801E022EA00005861704700BF00100240BA
S315080022A800BF00BF044B9A6909B1104301E022EA4E
S315080022B800009861704700BF0010024000BF00BFC9
S315080022C8044BDA6909B1104301E022EA0000D86133
S315080022D8704700BF0010024008B5FFF783FD00F0FD
S315080022E871F8FFF7BBFCFFF7DBFAFFF799F9FFF779
S315080022F817F9BDE80840FFF7EBBBF0B500BF00BF0C
S3150800230800BF00BF00230E681A460125954005EA56
S315080023180604AC4231D10D796F1EFFB2012F1CD8C5
S3150800232800BF4FF0030C87680CFA03FC27EA0C0772
S31508002338876091F805C087680CFA03FC4CEA07071A
S31508002348876000BF8788BFB227EA040484808C792F
S31508002358878894403C43A4B28480032407689C4039
S31508002368E4432740076007689D403D430560C56804
S315080023782C40CD799D402C43C4600132102A03F1C4
S315080023880203C2D1F0BD00BF00BF8161704700BF1C
S3150800239800BF0185704710B500BF00BF00BF01F038
S315080023A80703C90800EB81009B00046A0F219940BE
S315080023B824EA01010162016A02FA03F30B43036284
S315080023C810BD00002DE9F7434FF400300121FFF74F
S315080023D859FF214D4FF480200121FFF753FF4FF491
S315080023E800200121FFF74EFF002403264FF4004979
S315080023F80127284669468DF80470CDF800908DF8AF
S3150800240806408DF805608DF80740FFF776FF8DF8CA
S315080024180470124F8DF806404FF40058384669463E
S31508002428CDF800808DF805608DF80740FFF765FF41
S315080024384FF400732846694600938DF804408DF8D2
S3150800244805608DF80740FFF758FFC5F81890C7F8D4
S31508002458188003B0BDE8F083000400480008004867
S31508002468020403D5054B4FF400429A61830403D549
S31508002478034B4FF400521A85704700BF0004004802
S3150800248800080048030403D5054B4FF400421A8593
S31508002498810403D5034B4FF400529A61704700BF75
S315080024A80004004800080048024B188AC04300F494
S315080024B8007070470004004810B500BF00BF00BF91
S315080024C8C27803780AB3164A4478D268D243C2F364
S315080024D80222C2F10401C9B204FA01F10F2444FA2E
S315080024E802F28478C9B222400A4303F1604303F52D
S315080024F861431201D2B283F80023037801225909ED
S3150800250803F01F0302FA03F306E05909012203F050
S315080025181F0302FA03F32031024A42F8213010BD9C
S3150800252800ED00E000E100E00DC0A0E1F8DF2DE9CC
S3150800253804B04CE228D04BE2F06F9DE81EFF2FE16D
S315080025480DC0A0E1F8DF2DE904B04CE228D04BE233
S31508002558F06F9DE81EFF2FE1737464696F20696E3A
S31508002568697420646F6E650A000A77656C636F6D17
S315080025786520746F2053757A7568614F53205E5FBE
S315080025885E20322E302E360A4255494C44204A756A
S315080025986C20203120323031352030393A31373AFB
S30D080025A831310A0000000000B1
S315080025B0D2FDE1FE4DFF92FF9FFF92FFD0FE0EFE79
S315080025C07B00000001000000DAFFD8FFF9FF0000D9
S315080025D00000000015003F0021001000F9FFFDFF74
S315080025E002000200010000000100000000000000D7
S315080025F001000100000000000000000000000000CB
S315080026000000000000000000640032006400510071
S3150800261064006400590064005B00570051006400C0
S31508002620320032003E006400040067000300060022
S315080026300000000009000000040000000800010076
S315080026407B002B0002000000020068000100040065
S315080026500000000005000000030000000300010060
S31508002660790023000200000000006B00000004004F
S315080026700000000004000000030000000000000045
S3150800268073001B000000000000007000000002003C
S315080026900000000004000000020000000000000026
S315080026A06900190000000000000072000000020026
S315080026B00000000004000000020000000000000006
S315080026C0610018000000000000007500000000000E
S315080026D000000000040000000200000000000000E6
S315080026E053001B00010000000000780000000000F5
S315080026F000000000030000000100000000000000C8
S3150800270045002100020000000000790000000000DA
S3150800271000000100030000000200000000000000A5
S31508002720360025000200000000007A0000000000C4
S31508002730000002000400020002000200000000007F
S3150800274028002D00000000000100790000000000AC
S31508002750000001000200020003000200000002005F
S31508002760200036000000000002007800000000008B
S31508002770000001000200020003000200000002003F
S31508002780190039000000000003007600020000006E
S315080027900200020002000200060004000000020017
S315080027A01700410000000000040074000200000049
S315080027B002000200000004000700030000000400F5
S315080027C01600470000000200040072000400000022
S315080027D006000300000001000800040000000400D1
S315080027E014004F00000004000400700004000000FC
S315080027F006000400000004000B00040000000400AA
S31508002800140055000000040004006E0004000000D7
S3150800281007000200000006000C0002000000040089
S3150800282013005E000000070000A24A04010002002F
S315080028300400060008000A000C00100020004000F2
S3150800284080000001000000000000000000000000F9
S311080028500102030401020304060708093C
S70508001F29AA
