S00F000062696E2F6D61696E2E733139D8
S3150800000000400020891500085515000861150008EC
S31508000010551500085515000855150008000000007C
S315080000200000000000000000000000005515000850
S315080000305515000800000000551500083D02000887
S3150800004055150008551500085515000855150008DA
S3150800005055150008551500085515000855150008CA
S3150800006055150008551500085515000855150008BA
S3150800007055150008551500085515000855150008AA
S31508000080551500085515000855150008551500089A
S31508000090551500085515000855150008551500088A
S315080000A0551500085515000855150008551500087A
S315080000B055150008ED1C00085515000855150008CB
S315080000C0551500085515000855150008551500085A
S315080000D0551500085515000855150008551500084A
S315080000E0551500085515000855150008551500083A
S315080000F0551500085515000855150008551500082A
S31508000100000000000000000000000000551500086F
S315080001105515000855150008551500085515000809
S3150800012055150008551500085515000855150008F9
S3150800013055150008551500080000000000000000CD
S31508000140551500085515000855150008000000004B
S315080001500000000000000000000000000000000091
S31508000160000000000000000055150008551500089D
S3150800017055150008000000000000000000000000FF
S30D080001800000000055150008F7
S3150800018808B501F084F800F021F9054905484FF447
S315080001980072062300F08AF800F082F8002008BDED
S315080001A8840400205510000872B6054B054A1B68DA
S315080001B80C2101FB032300225A6062B600BFFDE743
S315080001C8CC0600208406002008B501F011FAFCE7E1
S315080001D870B500221146154B0C2000FB01F55E1977
S315080001E8746814F0020F1C460AD17668F60707D514
S315080001F850435D5B185AADB280B2854238BF0A468D
S315080002080C2048431D5AADB225B11D5AADB2013D61
S31508000218ADB21D5201310629DDD10C235343E1182D
S31508000228498889B2E152024B1A6070BD84060020DB
S31508000238CC0600202DE9F00FEFF308820D4C0E4D81
S315080002482368013305D023680C2101FB03539A6000
S3150800025801E000232360FFF7BBFF23680C2202FB9B
S3150800026803556FF00603AA689E4682F30888BDE818
S31508000278F00F7047CC0600208406002072B6704737
S3150800028862B6704700BF704782B072B6034B1B68E8
S31508000298019362B6019802B0704700BFCC060020E9
S315080002A808B501F093F900BFFDE7000022F0030244
S315080002B8403A2DE9F04301EB020C02F1340802F149
S315080002C838093C328844894407461144002272B6E4
S315080002D8114E0C25554374196068C00712D40F4887
S315080002E8C4F808C0C8F800004FF00450C9F80070F0
S315080002F8052B98BF06230860012063807353606046
S31508000308104600E0062062B60132062A01D0062801
S31508000318DDD0BDE8F08300BF84060020B1010008DF
S3150800032810B500230B490C225A438C18002060602C
S3150800033801330620834260808852F3D1064B07486A
S3150800034807494FF0FF321A60BDE810408022FF23A4
S31508000358FFF7ACBF84060020CC060020D1010008B0
S31508000368D006002007B5FFF78FFF009072B60D4B31
S31508000378009A0C2101FB0232516841F002015160D2
S3150800038872B6009A0C2101FB02325268019262B6D3
S31508000398019A910700D500BF019A9207F0D403B0D5
S315080003A85DF804FB84060020002372B6064A0C2171
S315080003B801FB0322516821F00201516062B601333C
S315080003C8062BF2D1704700BF8406002008B5FFF750
S315080003D8A7FF00F0F9F8BDE8084000F0CDB800001E
S315080003E838B5064C0546204600F012F9284600F0AE
S315080003F895FE2046BDE8384000F026B9500700208B
S3150800040810B50446074800F003F9013C14F8010F33
S3150800041810B1FFF7E5FFF9E70248BDE8104000F01C
S3150800042813B900BF5C07002030B585B0031E4FF02E
S315080004380002A8BF14468DF80F20BCBF5B420124F2
S315080004480A220A2193FBF1F501FB153301A830337B
S315080004581354511E2B460DB10A46F2E72CB104ABCC
S315080004680B442D2203F80C2C0A461044FFF7C8FF44
S3150800047805B030BD1FB500238DF80F300A230A24AE
S31508000488B0FBF4F104FB110001AA303098545C1E45
S31508000498084609B12346F2E7D018FFF7B1FF04B0BA
S315080004A810BD1FB500238DF80F300A2300F00F0181
S315080004B8092901AA94BF303157310009D15403F1EB
S315080004C8FF3101D00B46F1E7D018FFF799FF05B0C1
S315080004D85DF804FB0FB437B506AC264854F8045B38
S315080004E800F096F801940024285D002839D02528BC
S315080004F803D0FFF775FF0134F6E72B1958786928F2
S3150800050816D008D8252828D0632828D1019B1A1D73
S315080005180192187821E0752811D0782816D0732802
S315080005281DD1019B1A1D18680192FFF769FF16E08D
S31508000538019B1A1D18680192FFF776FF0FE0019BC9
S315080005481A1D18680192FFF795FF08E0019B1A1D06
S3150800055818680192FFF7A5FF01E0FFF741FF02348B
S31508000568C2E7044800F070F803B0BDE8304004B0AC
S31508000578704700BF5807002010B50E4800F03EF82F
S315080005880D4800F03BF80D4800F038F80C4800F024
S3150800059835F808242020FFF723FF013CFAD1202448
S315080005A80A20FFF71DFF013CFAD10648BDE81040AE
S315080005B8FFF790BF50070020540700205C0700206B
S315080005C858070020C02100080A4A002310B51360FE
S315080005D853609360D36013615361074C180121185F
S315080005E801330022042B4A602250CA608A60F4D17B
S315080005F810BD00BF600700207807002010B5044624
S31508000608FFF73CFE00232360BDE81040FFF738BE1D
S3150800061813B50446FFF732FE23680193FFF730FE49
S31508000628019B0BB1FFF79EFE019B002BF2D1FFF74A
S3150800063825FE23680193019B002BEBD10123236038
S31508000648FFF71EFE02B010BD08B5FFF7D7FFFFF784
S31508000658ABFEBDE80840FFF715BE000038B52821EF
S31508000668D42000F05AFF29210546D42000F055FF6A
S31508000678384C45EA0020A0812A21D42000F04DFFF5
S315080006882B210546D42000F048FF45EA0020E081E2
S315080006982C21D42000F041FF2D210546D42000F056
S315080006A83CFF45EA0020208208213C2000F035FF5F
S315080006B8092105463C2000F030FF45EA0020E08085
S315080006C80A213C2000F029FF0B2105463C2000F0B2
S315080006D824FF45EA002020810C213C2000F01DFF5C
S315080006E80D2105463C2000F018FF45EA00206081E8
S315080006F828213C2000F011FF292105463C2000F05E
S315080007080CFF45EA002020802A213C2000F005FF3E
S315080007182B2105463C2000F000FF45EA00206080B2
S315080007282C213C2000F0F9FE2D2105463C2000F03E
S31508000738F4FE45EA0020A08005213C2000F0EDFEE5
S31508000748062105463C2000F0E8FE45EA00202083FD
S3150800075838BD00BFB80700202DE9F041344D002404
S31508000768D4200F212C806C80AC80EC802C816C8185
S31508000778AC81EC812C826C82AC82EC822C8300F0F2
S31508000788CCFED42806464ED13C200F2100F0C5FEE3
S31508000798492818BF022647D130462021FF2200F0F3
S315080007A8A9FE30462321182200F0A4FE3C201F216A
S315080007B8224600F09FFE3C202021672200F09AFE80
S315080007C83C202121224600F095FE3C202421F422D3
S315080007D800F090FE3C202521224600F08BFE3C20A6
S315080007E82621802200F086FEFFF738FF6426274672
S315080007F8A046FFF733FFB5F90C200D4B9044B5F921
S315080008080E201744B5F91020013E1444F1D164228C
S3150800081898FBF2F897FBF2F794FBF2F4A3F8128028
S315080008289F82DC8200E001263046BDE8F08100BFE1
S31508000838B807002000BF7047F7B5154F3B78012465
S315080008480326002569464FF0904000938DF8075017
S315080008588DF804408DF805608DF8064001F0B4FA65
S315080008683A784FF0904369461A858DF80750094D2E
S31508000878009428468DF804408DF805608DF80640E2
S3150800088801F0A2FA2C85FFF7D5FF03B0F0BD00BF2B
S315080008982C0800200004004873B5134D2B78002453
S315080008A8032669464FF0904000938DF804408DF86A
S315080008B807408DF8056001F087FA2A784FF09043CB
S315080008C801259A618DF804408DF80740074C009574
S315080008D8204669468DF8056001F076FAA561FFF7A6
S315080008E8A9FF02B070BD00BF2C080020000400480C
S315080008F84FF090434FF480721A85FFF79BBF4FF06D
S3150800090890434FF480729A61FFF794BFF7B51F4F6B
S315080009180024012503264FF4807369464FF090405A
S3150800092800938DF806408DF807408DF804508DF829
S31508000938056001F049FA3B788DF8044069464FF09E
S31508000948904000938DF807408DF8056001F03CFA51
S3150800095839784FF0904001F07DFA8DF804408DF80B
S3150800096807400B4C0095204669468DF8056001F04E
S315080009782BFA2046294601F06DFAFFF7C0FFFFF764
S315080009885BFFFFF789FF03B0F0BD00BF2C08002006
S315080009980004004808B5FFF7B2FFFFF77DFFFFF729
S315080009A8AEFFFFF749FFFFF7A3FFBDE80840FFF7CB
S315080009B873BF08B5FFF79CFFFFF73EFFFFF79FFFDA
S315080009C8FFF73AFFFFF79BFFBDE80840FFF764BF4C
S315080009D838B504460825FFF78BFF230602D5FFF727
S315080009E85BFF01E0FFF728FF013DFFF788FF64007A
S315080009F815F0FF05E4B2EED1FFF77AFFFFF74CFFD3
S31508000A08FFF77DFFFFF774FFBDE83840FFF712BF11
S31508000A1870B5002306460C460022E2540133092B1A
S31508000A28FAD1FFF765FFFFF737FF08250023E25CD1
S31508000A385200E2540133092BF9D1FFF760FF4FF052
S31508000A4890431B8A9BB2D80703D5227842F0010245
S31508000A582270990703D5627842F0010262705A0734
S31508000A6803D5A27842F00102A270180703D5E278E6
S31508000A7842F00102E270D90603D5227942F0010252
S31508000A8822719A0603D5627942F001026271580604
S31508000A9803D5A27942F00102A271190603D5E379B2
S31508000AA843F00103E3710B4B1B8ADA0703D5237A54
S31508000AB843F001032372FFF71BFF013DB6D10EB1C0
S31508000AC8FFF7BAFEFFF71BFFFFF712FFBDE87040F6
S31508000AD8FFF7B0BE0004004870B505460C46164632
S31508000AE8FFF758FF2846FFF773FF2046FFF770FF02
S31508000AF83046FFF76DFFBDE87040FFF75ABF0000A4
S31508000B081D4B70B509240022013C1A805A829A8422
S31508000B18A3F84820DA8603F10203F4D1174D4FF6F5
S31508000B28FF762E80FFF7F2FE72208121FF22FFF75B
S31508000B38D3FF72208321FF22FFF7CEFF72208D2173
S31508000B482246FFF7C9FF722080210322FFF7C4FF58
S31508000B5872208F212322FFF7BFFFFFF79DFE722021
S31508000B68802107222C80FFF7B7FF72208E210822E2
S31508000B78FFF7B2FF2E8070BDD20700202C08002090
S31508000B8838B5FFF707FF7220FFF722FFB420FFF7F3
S31508000B981FFFFFF7FFFE7320FFF71AFF01204649DC
S31508000BA8FFF736FF0023454D434C05EB4302195D15
S31508000BB80133092BD186F6D101202146FFF728FFF4
S31508000BC805F1360200231188E05C013341EA002169
S31508000BD8092B22F8021BF6D101203749FFF718FF1F
S31508000BE80023E25C25F813200133092BF9D10120EB
S31508000BF83149FFF70DFF324A0023E05C518801337B
S31508000C0841EA0021092B22F8021FF6D101202A49B8
S31508000C18FFF7FEFE002305EB4302E15C0133092BCF
S31508000C285182F8D101202449FFF7F2FE254A00230C
S31508000C381188E05C013341EA0021092B22F8021BDE
S31508000C48F6D101201C49FFF7E3FE002305EB430212
S31508000C58E15C0133092B9184F8D101201649FFF785
S31508000C68D7FE194A00231188E05C013341EA0021BE
S31508000C78092B22F8021BF6D101200F49FFF7C8FEF7
S31508000C88002305EB4302E15C0133092BA2F848105F
S31508000C98F7D100200849FFF7BBFE0C4A0023118844
S31508000CA8E05C013341EA0021092B22F8021BF6D140
S31508000CB8BDE83840FFF77DBE2E080020D207002081
S31508000CC8D0070020E4070020F60700201A080020AD
S31508000CD80C490846002310B500F8103B8A1E023254
S31508000CE80023824253809382D384F8D181F838301E
S31508000CF881F84430CB630B64FFF702FFBDE8104068
S31508000D08FFF73EBF3808002070B55E4B03F11202A4
S31508000D18B3F916000233B3F902109342C1EB000186
S31508000D28D984F5D15849594A0B6CB2F95820B1F902
S31508000D382E40072000FB0323082293FBF2F3B1F9A0
S31508000D482C20B1F926000B6412F5AF7FAABF02461C
S31508000D580323002314F5AF7FB8BF2246B1F92A400A
S31508000D68B8BF042314F5AF7FB8BF2246B1F930409F
S31508000D78B8BF022314F5AF7FB8BF2246B1F9284099
S31508000D88B8BF052314F5AF7FB8BF2246B1F932407C
S31508000D98B8BF012314F5AF7FB8BF2246B1F934406E
S31508000DA8B8BF0623054615F5AF7FB8BF002310F56B
S31508000DB8AF7FA8BF104614F5AF7F334A32DB10F56C
S31508000DC8AF7F5ADC002B55D002EB43063246B6F9FC
S31508000DD82860B2F924205D1E964203F10104A8BFD3
S31508000DE82C464FEA831001EB440401EB4303B4F99C
S31508000DF82650B3F926304FEA45141D4494FBF5F3FB
S31508000E08C3F12004ACBFA0F1400200F140024443FC
S31508000E1803FB0244202594FBF5F4E03CB4F5807FF7
S31508000E28CC6324DD4FF4807491F83830012B03D84D
S31508000E38154A013382F8383091F83830124D022BAA
S31508000E4809D1FFF71BFA95F84430EC6343F003031E
S31508000E5885F8443007E0FFF711FA95F8443023F08F
S31508000E68010385F84430BDE87040FFF709BA14F560
S31508000E78807FD9DA6FF0FF04D6E7002382F8383086
S31508000E8870BD00BF3608002038080020D2070020A9
S31508000E9838B5FFF775FE164B00221846845E40F2F1
S31508000EA8FF318C42DCBF4FF480648452B3F9124098
S31508000EB8DD8E8C42DCBF4FF480645C82B3F9244033
S31508000EC88C42D8BF4FF480610A4CD8BF99840A4926
S31508000ED8145B11442C1B02328C82102A4FF480644E
S31508000EE84C8003F10203D9D1BDE83840FFF70CBF9F
S31508000EF8D2070020000000203808002010B5104B43
S31508000F080024D02020217F221C805C809C8000F051
S31508000F18F1FA2246D020212100F0ECFA2246D02008
S31508000F28222100F0E7FAD0202321102200F0E2FA65
S31508000F382246D0202421BDE8104000F0DBBA00BFC5
S31508000F488008002038B52821D02000F0E6FA2921A3
S31508000F580546D02000F0E1FA0E4C45EA002020802C
S31508000F682A21D02000F0D9FA2B210546D02000F0F6
S31508000F78D4FA45EA002060802C21D02000F0CDFA6A
S31508000F882D210546D02000F0C8FA45EA0020A080A1
S31508000F9838BD00BF8008002008B5FFF799FE002075
S31508000FA8042100F0E9FE002000F0FCFEFFF770FFC0
S31508000FB8F9E708B5FFF7D0FBFFF7A0FF01201421D2
S31508000FC800F0DAFE012000F0EDFEFFF747FBFFF719
S31508000FD8B9FFF7E770B500240646254685EAE5729F
S31508000FE8A2EBE57286EAE673A3EBE6739A4221DA80
S31508000FF8002E4FF00A036FF0090106DD94FBF3F0A3
S3150800100894FBF1F100B209B205E094FBF1F094FB08
S31508001018F3F300B219B200F0B5FF0B4BB3F904307D
S31508001028B4F5967F4FF01400B8BF01341D4400F09C
S3150800103893FED3E70020014600F0A4FF6420BDE82C
S31508001048704000F089BE00BF8008002008B5244813
S31508001058FFF740FA234924484FF400720623FFF79E
S3150800106825F9224922484FF400720623FFF71EF98C
S3150800107800F044F800F044F800F07CFF08B34FF499
S315080010887A7000F069FE1B48FFF7A4FF1A48FFF7B5
S31508001098A1FF1848FFF79EFF1648FFF79BFF15485C
S315080010A8FFF798FF1348FFF795FF1348FFF792FFD6
S315080010B81148FFF78FFF1048FFF78CFF0E48FFF718
S315080010C889FF4FF4004000F031FF642000F044FE29
S315080010D84FF4004000F03CFFC82000F03DFECBE787
S315080010E8D121000884000020A10F000884020020EE
S315080010F8BB0F000890D00300702FFCFF7047000054
S315080011080023044A995A044A99520233402BF8D1C3
S31508001118704700BF10000020E80A0020034BDA6970
S31508001128120601D400BFF9E7188570470038014050
S3150800113810B54FF4003088B0012100F06BFC4FF46D
S315080011488040012100F074FC4FF4C0630093022329
S3150800115800248DF80430694603234FF090408DF833
S3150800116805308DF806408DF8074000F02DFE4FF043
S3150800117890400921072200F075FE07224FF090409B
S315080011880A2100F06FFE0394049405940794084C0A
S315080011984FF4E133029320460C2302A9069300F084
S315080011A809F82046012100F067F808B010BD00BF0D
S315080011B80038014030B5044699B00D4600BF00BF57
S315080011C800BF00BF00BF00BF00BF036823F00103CC
S315080011D8036042688B6822F44052134343606A6886
S315080011E8EB6801681A432B6921F4B05121F00C0108
S315080011F813430B43036082686B6922F440721343F6
S31508001208836001A800F07AFA174B9C4201D10F9A1D
S315080012180EE0164B9C4201D1109A09E0144B9C42E9
S3150800122801D1119A04E0134B9C420CBF129A139AE7
S315080012382368296813F4004F18BF5200B2FBF1F36C
S3150800124801FB1322B2EB510F226828BF013312049F
S3150800125806D54FF6F072C3F342011A4041EA020373
S315080012689BB2A38119B030BD003801400044004044
S3150800127800480040004C004000BF00BF036811B199
S3150800128843F0010301E023F001030360704708B542
S3150800129800F0B0F900F0FCFDFFF74AFF00F0D6FCB5
S315080012A800F024FF00F0A2FEBDE8084000F092B85E
S315080012B810B500BF00BF00BFC27803780AB3164A44
S315080012C84478D268D243C2F30222C2F10401C9B2F1
S315080012D804FA01F10F2444FA02F28478C9B22240CA
S315080012E80A4303F1604303F561431201D2B283F856
S315080012F8002303780122590903F01F0302FA03F3AE
S3150800130806E05909012203F01F0302FA03F3203104
S31508001318024A42F8213010BD00ED00E000E100E085
S315080013280B23013B01D000BFFBE7704737B50D4DCE
S315080013380123032280248DF804308DF806302846C8
S31508001348002369468DF805208DF80730009400F0CB
S315080013583BFD2846214600F081FDFFF7E1FF03B073
S3150800136830BD00BF0004004837B50D4D03220023E1
S3150800137880248DF805202846012269468DF8043010
S315080013888DF806208DF80730009400F01DFD2846D4
S31508001398214600F05FFDFFF7C3FF03B030BD00BF6D
S315080013A80004004808B50448402100F057FDBDE888
S315080013B80840FFF7B5BF00BF0004004808B5044851
S315080013C8402100F047FDBDE80840FFF7A9BF00BF68
S315080013D80004004807B54FF48020012100F01AFBE5
S315080013E8C0230093012303220A488DF8043069466E
S315080013F88DF8063000238DF805208DF8073000F0A3
S31508001408E3FCFFF7DBFFFFF791FFFFF7ADFF03B03C
S315080014185DF804FB0004004808B5FFF7CFFFFFF79F
S31508001428A3FFFFF7CBFFFFF781FFFFF7BBFFBDE879
S315080014380840FFF799BF08B5FFF7B4FFFFF776FF2F
S31508001448FFF7BCFFFFF772FFFFF7B8FFBDE80840D4
S31508001458FFF78ABF38B504460825FFF7A3FF230612
S3150800146802D5FFF781FF01E0FFF760FF013DFFF7AF
S31508001478A5FF640015F0FF05E4B2EED1FFF792FF69
S31508001488FFF772FFFFF79AFF054B1C8AA4B2FFF70E
S3150800149889FFFFF745FF84F08000C0F3C01038BD08
S315080014A80004004870B50646FFF77CFFFFF75CFFA7
S315080014B808250024FFF782FF0D4B1B8A64001A06CD
S315080014C8E4B248BF013405F1FF3548BFE4B2FFF777
S315080014D869FF15F0FF05EDD10EB1FFF727FFFFF7F6
S315080014E86DFFFFF75FFFFFF71BFF204670BD00BFC4
S315080014F80004004870B505460C461646FFF78CFFEB
S315080015082846FFF7A7FF2046FFF7A4FF3046FFF750
S31508001518A1FFBDE87040FFF78EBF38B504460D46F3
S31508001528FFF77AFF2046FFF795FF2846FFF792FF51
S31508001538FFF772FF44F00100FFF78CFF0020FFF762
S31508001548B1FF0446FFF777FF204638BD684620F006
S3150800155807018D4600BFFDE74FF4004000F0E6FCA2
S31508001568064B013B01D000BFFBE74FF4004000F0F3
S31508001578EFFC024B013BEFD000BFFBE781969800D2
S315080015880E4A0F48801A80100023834206D00D4958
S3150800159851F8231042F823100133F6E70A4BD3F81B
S315080015A8882042F47002C3F8882003F50C735A6839
S315080015B822F040425A60FEF7E3BD00BF0000002053
S315080015C8840000201022000800ED00E0054B064ABA
S315080015D85A60064AF02182F8231000229A600722E8
S315080015E81A60704710E000E04090020000ED00E045
S315080015F830BF704700F000B83B4BD3F8882042F458
S315080016087002C3F88820394B1A6842F001021A603A
S315080016185968374A0A405A601A6822F0847222F4CE
S3150800162880321A601A6822F480221A605A6822F4EC
S31508001638FE025A60DA6A22F00F02DA62196B2D4A3C
S3150800164882B00A401A6300229A60009201921A68C8
S3150800165842F480321A60254B1A6802F40032019265
S31508001668009A01320092019A1AB9009AB2F5A04F67
S31508001678F1D11B6813F4003318BF01230193019BAA
S31508001688012B05D0184B4FF000629A6002B07047DC
S31508001698194B12221A60A3F580535A685A605A6879
S315080016A85A605A6842F480625A605A6822F47C1270
S315080016B85A605A6842F4E8125A601A6842F0807208
S315080016C81A601968094A8901FBD5536823F0030388
S315080016D85360536843F002035360044B5B6803F096
S315080016E80C03082BF9D1CDE700ED00E00010024005
S315080016F80CC07FF8CCFC00FF00200240A54B5A68B6
S3150800170802F00C02042A2DE9F04305D0082A06D06F
S31508001718A14B0360BAB917E09F4B036013E05968F9
S315080017285C68C1F38341E20301F1020101D49B4AD3
S3150800173806E0DA6A984B02F00F020132B3FBF2F2BE
S315080017484A43026000E00022924F954D7B68DFF815
S315080017585482C3F30313EC5C0368E4B223FA04F176
S3150800176841607E68C6F30226AE5D21FA06F68660F3
S31508001778D7F804C0CCF3C22C15F80C50EDB2E940E2
S31508001788C160D7F82C90C9F3041909F00F0C19F0A1
S31508001798100F38F81CC01FFA8CFC07D0BCF1000FD4
S315080017A804D0B2FBFCFCC0F810C000E00361FF6A75
S315080017B8C7F3442C0CF00F071CF0100F38F81770F5
S315080017C8BFB204D01FB1B2FBF7F7476100E0436127
S315080017D8704FD7F830C01CF0100F0ABFDFF8B8C131
S315080017E88361C0F818C03F6BBF0656BF6A4FC3610E
S315080017F8C761684FD7F830C01CF0400F0ABFDFF83A
S3150800180898C10362C0F820C03F6BFF0506D593420E
S3150800181804D1A54202D15F00476200E041625D4FEC
S31508001828D7F830C01CF4805F08D0934206D1A54289
S3150800183804D14FEA430CC0F828C000E081623F6B28
S31508001848BF0506D5934204D1A54202D15F00C762F7
S3150800185800E0C1624F4FD7F830C01CF4806F08D03B
S31508001868934206D1A54204D14FEA430CC0F84CC0AE
S3150800187800E0C1643F6B3F0506D5934204D1A542F3
S3150800188802D15F00076500E00165424FD7F830C00E
S315080018981CF4005F08D0934206D1A54204D14FEA4A
S315080018A8430CC0F854C000E001653F6B3F0406D5F9
S315080018B8934204D1A54202D15A00826500E08165A7
S315080018C8344A146BA40714D0116B01F003010129DB
S315080018D801D183630EE0116B01F00301022902D1DD
S315080018E84FF4004105E0116B01F00301032901D10A
S315080018F829498163126B274912F4403F01D1C6630F
S3150800190818E00A6B02F44032B2F5803F01D1C3638E
S3150800191810E00A6B02F44032B2F5003F02D14FF4E8
S31508001928004206E00A6B02F44032B2F5403F01D1A4
S31508001938194AC263174A116B11F4402F01D106647C
S3150800194818E0116B01F44021B1F5802F01D1036429
S3150800195810E0116B01F44021B1F5002F02D14FF4C4
S31508001968004106E0116B01F44021B1F5402F01D181
S3150800197809490164126B074912F4401F01D14664EC
S3150800198823E00A6B02F44012B2F5801F0CD14364B7
S315080019981BE000BF0010024000127A0000093D0053
S315080019A874000020540000200A6B02F44012B2F5B5
S315080019B8001F02D14FF4004206E00A6B02F44012F7
S315080019C8B2F5401F01D1114A4264114A116B11F44C
S315080019D8400F02D18664BDE8F083116B01F440011B
S315080019E8B1F5800F0FD0136B03F44003B3F5000F5E
S315080019F802D14FF4004306E0136B03F44003B3F532
S31508001A08400F01D1014B8364BDE8F08300127A00C8
S31508001A180010024000BF00BF044B5A6909B11043C1
S31508001A2801E022EA00005861704700BF0010024032
S31508001A3800BF00BF044B9A6909B1104301E022EAC6
S31508001A4800009861704700BF0010024000BF00BF41
S31508001A58044BDA6909B1104301E022EA0000D861AB
S31508001A68704700BF0010024000BF00BF00BF244AED
S31508001A78038890429BB212D002F5006290420ED0BB
S31508001A88B0F1804F0BD0A2F59832904207D002F5F4
S31508001A988062904203D002F5A432904203D14A8864
S31508001AA823F070031343174A904208D002F5806260
S31508001AB8904204D023F440730A899BB213430380E7
S31508001AC84B68C3620B8803850D4B984213D003F500
S31508001AD8006398420FD003F5406398420BD003F58C
S31508001AE88063984207D003F58063984203D003F5CC
S31508001AF80063984201D14B890386012343617047E5
S31508001B08002C01400010004000BF00BF038819B12F
S31508001B189BB243F0010303E023F001031B041B0CEB
S31508001B280380704730B500BF00BF00BF00BF036A17
S31508001B380C6823F001030362036A4268856925F481
S31508001B48803525F073052C438D8923F002032B4332
S31508001B588D882B43154DA8420FD005F50065A84278
S31508001B680BD005F54065A84207D005F58065A8425B
S31508001B7803D005F58065A84211D100BF00BF00BF94
S31508001B8800BFCD8923F008032B43CD8823F004032F
S31508001B982B430D8A22F440722A434D8A2A4342600F
S31508001BA88A6884614263036230BD00BF002C014025
S31508001BB870B500BF00BF00BF00BF036A0C688E89F6
S31508001BC823F010030362056A4268836923F0807369
S31508001BD823F4E64343EA04248B8825F02005334397
S31508001BE845EA0313104DA84203D005F50065A84237
S31508001BF814D100BF00BF00BF00BFCD890E8A23F0ED
S31508001C08800343EA0513CD8823F0400343EA051306
S31508001C184D8A22F44062354342EA850242608A6860
S31508001C2884618263036270BD002C014000BF00BF57
S31508001C38436C11B143F4004301E0C3F30E03436454
S31508001C48704700BFC94389B20161704730B50023A0
S31508001C5885B01F494FF4806221F813201D4921F8E1
S31508001C6813201D4A002422F813400133042B254665
S31508001C78EFD11A4B022001211C60FFF7E7FEADF8E9
S31508001C880640ADF80C40ADF80E40154C4FF48C7371
S31508001C98ADF804302046312301A90293FFF7E4FE84
S31508001CA820460121FFF730FFE36843F00103E360AC
S31508001CB81D238DF80030684601238DF801508DF8EC
S31508001CC802308DF80330FFF7F3FA05B030BD00BFD0
S31508001CD8480B00203C0B0020340B0020440B002046
S31508001CE8000400400023104A32F8131089B229B1BB
S31508001CF832F8131089B2013989B207E00B4931F86D
S31508001D08131089B222F81310094A012122F8131070
S31508001D180133042BE7D1074B07481A68012101321A
S31508001D281A60FFF78EBF00BF480B00203C0B002047
S31508001D38340B0020440B00200004004082B072B621
S31508001D48044B1B68019362B601980A23B0FBF3F0AB
S31508001D5802B07047440B002013B50446FFF7EEFFA0
S31508001D6820440190019CFFF7E9FF844202D9FFF756
S31508001D783FFCF7E702B010BD72B60A235943064B73
S31508001D8889B223F81010054B23F81010044B0022CB
S31508001D9823F8102062B67047480B00203C0B002039
S31508001DA8340B002010B50446064B33F8142092B2BB
S31508001DB812B9FFF71DFCF7E772B6002223F81420BC
S31508001DC862B610BD340B0020F0B500BF00BF00BFD7
S31508001DD800BF00230E681A460125954005EA060441
S31508001DE8AC4231D10D796F1EFFB2012F1CD800BF46
S31508001DF84FF0030C87680CFA03FC27EA0C07876080
S31508001E0891F805C087680CFA03FC4CEA070787604F
S31508001E1800BF8788BFB227EA040484808C7987883C
S31508001E2894403C43A4B28480032407689C40E44356
S31508001E382740076007689D403D430560C5682C40F4
S31508001E48CD799D402C43C4600132102A03F1020360
S31508001E58C2D1F0BD00BF00BF8161704700BF00BF97
S31508001E680185704710B500BF00BF00BF01F0070322
S31508001E78C90800EB81009B00046A0F21994024EAEF
S31508001E8801010162016A02FA03F30B43036210BDFA
S31508001E982DE9F7434FF400300121FFF7BBFD214D2B
S31508001EA84FF480200121FFF7B5FD4FF400200121EA
S31508001EB8FFF7B0FD002403264FF4004901272846FA
S31508001EC869468DF80470CDF800908DF806408DF8AF
S31508001ED805608DF80740FFF777FF8DF80470124FF5
S31508001EE88DF806404FF4005838466946CDF8008004
S31508001EF88DF805608DF80740FFF766FF4FF4007305
S31508001F082846694600938DF804408DF805608DF8D3
S31508001F180740FFF759FFC5F81890C7F8188003B0A7
S31508001F28BDE8F0830004004800080048020403D509
S31508001F38054B4FF400429A61830403D5034B4FF4CB
S31508001F4800521A85704700BF000400480008004878
S31508001F58030403D5054B4FF400421A85810403D5BB
S31508001F68034B4FF400529A61704700BF00040048BB
S31508001F7800080048024B188AC04300F400707047EE
S31508001F8800040048021E184B09DD986940F008004D
S31508001F9898614FF090434FF4004098610BE0188D14
S31508001FA880B240F0080018854FF090434FF400407F
S31508001FB85242188512B200290B4B05DD188D80B2DE
S31508001FC840F02000188505E09869494240F020004D
S31508001FD8986109B26429B4BF08466420642AB4BF64
S31508001FE81146642100F044B800040048F7B51F4DAF
S31508001FF800240326382301272846694600938DF8C6
S3150800200804708DF806408DF805608DF80740FFF7CF
S31508002018DBFE082300932846022369468DF8043018
S315080020288DF806408DF805608DF80740FFF7CCFE59
S315080020380F2228463146FFF715FF4FF40043694635
S315080020484FF0904000938DF804708DF806408DF88F
S3150800205805608DF80740FFF7B7FE10232B85204645
S315080020682146FFF78FFF03B0F0BD00BF0004004804
S315080020782DE9F04186B0702301930123ADF80830A5
S315080020880423ADF80A30174F174C0223ADF8103061
S315080020980023ADF81230ADF816303B6842F21076D8
S315080020A8B3FBF6F3023B58436425B0FBF5F34FF44C
S315080020B880722046884601A9ADF814200393FFF7D5
S315080020C831FD3B68B3FBF6F6023E06FB08F8B8FB9B
S315080020D8F5F5204601A90395FFF76AFD06B0BDE8A0
S315080020E8F08100BF50000020002C014030B54FF4A5
S315080020F8006087B00121FFF79BFC4FF4802001217F
S31508002108FFF788FC1D4C1E4D4FF4C043019302236C
S315080021188DF808302046032301A98DF80930FFF702
S3150800212853FE20460D210622FFF79CFE20460E2167
S315080021380622FFF797FE134B1A6842F21073B2FB92
S31508002148F3F30024013B284603A90493ADF80C4091
S31508002158ADF80E40ADF81440ADF81640FFF784FC0C
S3150800216820462146FFF784FF28460121FFF7CCFCC5
S3150800217828460121FFF75AFD07B030BD000400487C
S31508002188002C0140500000200DC0A0E1F8DF2DE921
S3150800219804B04CE228D04BE2F06F9DE81EFF2FE111
S315080021A80DC0A0E1F8DF2DE904B04CE228D04BE2D7
S315080021B8F06F9DE81EFF2FE1737464696F20696EDE
S315080021C8697420646F6E650A000A77656C636F6DBB
S315080021D86520746F2053757A7568614F53205E5F62
S315080021E85E20322E302E360A4255494C44204A6122
S315080021F86E20313520323031362031313A33383A8B
S30D0800220831380A00000000004D
S31508002210D2FDE1FE4DFF92FF9FFF92FFD0FE0EFE1C
S31508002220DAFFD8FFF9FF00000000000015003F00A4
S3150800223021001000F9FFFDFF020002000100000066
S31508002240010000000000000001000100000000007D
S315080022500000000000000000000000000000000070
S3150800226000A24A04010002000400060008000A0051
S315080022700C00100020004000800000010000000053
S31508002280000000000000000001020304010203042C
S30908002290060708091E
S7050800158954
